:0200000460009A
:100000004643464200000156000000000101020084
:1000100000000000000000000000000000000000E0
:1000200000000000000000000000000000000000D0
:1000300000000000000000000000000000000000C0
:1000400000000000010403000000000000000000A8
:100050000000200000000000000000000000000080
:100060000000000000000000000000000000000090
:100070000000000000000000000000000000000080
:10008000EB04180A063204260000000000000000FD
:10009000050404240000000000000000000000002F
:1000A0000000000000000000000000000000000050
:1000B0000604000000000000000000000000000036
:1000C0000000000000000000000000000000000030
:1000D00020041808000000000000000000000000DC
:1000E0000000000000000000000000000000000010
:1000F0000000000000000000000000000000000000
:10010000D8041808000000000000000000000000F3
:100110000204180804200000000000000000000095
:1001200000000000000000000000000000000000CF
:10013000600400000000000000000000000000005B
:1001400000000000000000000000000000000000AF
:10015000000000000000000000000000000000009F
:10016000000000000000000000000000000000008F
:10017000000000000000000000000000000000007F
:10018000000000000000000000000000000000006F
:10019000000000000000000000000000000000005F
:1001A000000000000000000000000000000000004F
:1001B000000000000000000000000000000000003F
:1001C000000100000010000001000000000000001D
:1001D000000001000000000000000000000000001E
:1001E000000000000000000000000000000000000F
:1001F00000000000000000000000000000000000FF
:10020000FFFFFFFFFFFFFFFFFFFFFFFFFFFFFFFFFE
:10021000FFFFFFFFFFFFFFFFFFFFFFFFFFFFFFFFEE
:10100000D10020402C100060000000000000000013
:1010100020100060001000600000000000000000D0
:101020000000006090AD0000000000000000012002
:10103000351000605A4B5B4A5A64594B07221A64B8
:10104000574B4FF42A029A63574B9D46574A5849CB
:10105000584800F0D1F8584A5849594800F0CCF89F
:101060005849594800F0E6F8584B4FF470021A609E
:10107000002404E0564B574A43F824200134AF2C97
:10108000F8D9002404E0544B234480221A70013420
:101090009F2CF8D9514B4E4A1A6000F017FA504A6B
:1010A0004F4BDB6923F07F0343F04003D3614C4A8D
:1010B0004B4B5B6A23F07F0343F040035362384B92
:1010C0004FF0FF329A66364B4FF0FF32DA66344B00
:1010D0004FF0FF321A67324B4FF0FF325A6700F081
:1010E00047F900F089FB00F0A5F900F0EFF93D4861
:1010F00000F0A2FB00BF00BF00BF00BF384A384B62
:10110000DB6E43F44053D366374B00221A60364BF4
:101110000022C3F80821344B0022C3F81821324BB7
:101120000022C3F82821304B0022C3F838212F4B6E
:101130009B6B03F00103002B0CD12C4B2C4A5A65FE
:101140002A4B42F615621A65284A284B9B6B43F0DE
:1011500001039363254A254B9B6843F00113936079
:1011600000F042FB00BF234B1B68132BFBD900F0A0
:101170009BFA00F075F800F03BFB00F0C7F900F0B7
:101180004FFB00BF1B4B1B68B3F5967FFAD300F0F3
:101190003BFB00F035FB00F023FB00F045FBFAE7DA
:1011A00000C00A40ABAAAAAA00800720C07C0000A9
:1011B0007018006000000000601800203C9500607E
:1011C00000000020C05200206018002088ED00E0E0
:1011D000003000209127000000E400E008ED00E06E
:1011E00000C00F400046C3230040084000400D40AF
:1011F0000000C056741E002080B485B000AFF860B7
:10120000B9607A60FA68BB689A420DD007E0FB6863
:101210001A1DFA60BA68111DB96012681A60FA687E
:101220007B689A42F3D300E000BF1437BD465DF8F7
:10123000047B704780B483B000AF7860396004E00D
:101240007B681A1D7A6000221A607A683B689A42AD
:10125000F6D300BF0C37BD465DF8047B704700BF76
:1012600080B483B000AF00233B603B4A3A4BDB6E57
:1012700043F44033D366384A374BDB6E43F4407354
:10128000D366364B1B78082B03D14FF440737B6039
:101290000AE0324B1B780A2B03D14FF405737B60B5
:1012A00002E04FF446737B602D4B1B78032B1BD958
:1012B0002B4B1B781F2B04D97B6843F440437B6086
:1012C00010E0274B1B780F2B04D97B6843F40043B5
:1012D0007B6007E0224B1B78072B03D97B6843F424
:1012E00080437B6020233B607B6843F023037B606B
:1012F0001C4A7B6843F4906353641A4A3B6843F08A
:1013000080039364184B01221A7000BF154B9B6C2D
:1013100003F08003002BF9D1134B00221A70134AFB
:101320007B6843F490635364104A3B6843F0800346
:1013300093640D4B01221A7000BF0A4B9B6C03F0A3
:101340008003002BF9D1084B00221A7000BF0C3724
:10135000BD465DF8047B704700C00F403C0900208B
:101360003D09002000400C40701E002000800C4011
:1013700080B400AF1F4B00221A601F4B10221A606E
:101380001E4B1F4A1A601C4B1E4A1A601B4B1E4AFA
:101390001A60194B1D4A1A60184B1D4A1A60164BE9
:1013A0001C4A1A60154B1C4A1A60134B1B4A1A60E0
:1013B000124B1B4A1A60104B1A4A1A600F4B1A4AFA
:1013C0001A600C4B01221A60BFF34F8FBFF36F8F6F
:1013D000164B00221A60BFF34F8FBFF36F8F144A72
:1013E000134B1B6843F44033136000BFBD465DF8E8
:1013F000047B704794ED00E09CED00E0A0ED00E080
:10140000250008031100200021000207120000201F
:10141000250008131300202027000B1314000040A0
:1014200033001013150000602F000B0750EF00E091
:1014300014ED00E080B483B000AF234B1B697B60E8
:101440007B6803F00203002B0CD01F4B4FF440428B
:101450009A611D4B4FF480325A611B4B43F242029A
:101460009A612AE07B6803F40053002B04D1164BE9
:101470004FF400525A6120E07B6803F48053002B44
:1014800004D1114B4FF480525A6116E07B68002B57
:1014900012DA7B6803F48033002B04D00A4B4FF43C
:1014A00080329A6109E07B6803F04003002B05D18C
:1014B000054B40225A6100E000BFBEE700BF0C3779
:1014C000BD465DF8047B704700800D4080B400AFDE
:1014D0000B4B4FF08032C3F80421094B094AC3F883
:1014E0000021074B4FF08032C3F8F420044B064A2A
:1014F000C3F8F02000BFBD465DF8047B704700BF15
:1015000000800D401B1018200C0D111380B485B005
:1015100000AF5A4A594B1B6823F001031360574B25
:10152000574A1288C3F89020564BD3F8E030FB603E
:10153000FB68DBB2544A1360FB681B0AC3F30B035E
:10154000524A1360FB681B0DBB604F4B1B6807EED4
:10155000903AF8EE677AB3EE097A77EEC77A4C4B99
:10156000C3ED007A494B1B68BA68D31A494A136025
:10157000464B1B6807EE903AB8EE677A424B1A6802
:10158000454B1B68D31A434A126802FB03F307EE6C
:10159000903AB8EE676A3E4BD3ED006AC6EE267A03
:1015A00077EE277AFCEEE77A17EE903A7B603349C4
:1015B000324B1A687B681B0513430B60334B1B6867
:1015C00007EE903AB8EE677A2F4B1A68334B1B68D8
:1015D000D31A304A126802FB03F307EE903AB8EED2
:1015E000676A2B4BD3ED006AC6EE267A77EE277A30
:1015F000FCEEE77A17EE903A7B6020481F4BD3F859
:1016000010217B681904264B0B401343C0F810319E
:101610001E4B1B6807EE903AB8EE677A1A4B1A68B1
:10162000204B1B68D31A1B4A126802FB03F307EE18
:10163000903AB8EE676A164BD3ED006AC6EE267A8A
:1016400077EE277AFCEEE77A17EE903A7B600B494B
:101650000A4BD3F810217B68C3F30B031343C1F883
:101660001031064A054B1B6843F00203136000BFAC
:101670001437BD465DF8047B704700BF80810D4084
:101680004C0B002000441F407C1E0020801E0020C8
:10169000881E0020841E0020500B0020580B0020C4
:1016A0000000FF0F540B002080B584B000AF3E4B0C
:1016B00040F66172C3F8202100F0AAF83B4A3B4B88
:1016C000D3F8803043F00303C2F88030384B40F247
:1016D0000442C3F86021374B1A68374B1340002B84
:1016E00006D1334BD3F8A83103F00303002B23D0EA
:1016F000304B4FF000425A632D4A2D4BD3F8403106
:1017000043F00203C2F840310023FB6002E0FB68B3
:101710000133FB60264BD3F8403103F00203002B6A
:10172000F5D1264B4FF400321A60224B4FF00042A5
:101730009A63192000F070F81E4B4FF080429A63B4
:101740001C4B00221A601A4B0A22C3F8A8214FF43E
:10175000207200211A4800F06BF8194B4FF48102F7
:101760001A60174B4FF480021A64114B144AC3F8E5
:1017700058210F4B40F24312C3F848217123FB72EA
:10178000104B7B60FB7A10330F497A6841F82320B5
:101790000E4B4FF400321A60054B0122C3F8402172
:1017A00000BF1037BD4680BD00800D4000C00F4017
:1017B00000002E4000900D40001C1E008CE200E056
:1017C000005000209D280000003000200CE100E0C7
:1017D000F8B500BFF8BC08BC9E467047FFFFFFFF8E
:1017E0005FF800F03D6000005FF800F0F1260000B7
:1017F0005FF800F07D2600005FF800F00D27000084
:101800005FF800F0CD5E00005FF800F0096E0000A8
:101810005FF800F0A53300005FF800F0FD1D000048
:101820005FF800F0FF2600005FF800F0953B000035
:101830005FF800F0957400005FF800F01D1A0000DA
:1018400019020000A5120000551300000514000045
:10185000B51400006515000015160000C51600003F
:10186000CD1700000D1A0000176C0000FFFFFFFFEE
:101870000000000000000000000000000000000068
:101880000000000000000000000000000000000058
:1018900080B590B000AF4FF08443FB60584BBB6005
:1018A000FB6818331A68FB6814331B6813407B60AD
:1018B0007B68002B1CD0FB6818337A681A6014E030
:1018C0007B6893FAA3F3B3FA83F33B603B689B0016
:1018D000BA6813441B68984701223B6802FA03F375
:1018E000DB431A467B6813407B607B68002BE7D1A3
:1018F000444BFB61444BBB61FB6918331A68FB69BD
:1019000014331B6813407B617B69002B1CD0FB697F
:1019100018337A691A6014E07B6993FAA3F3B3FA77
:1019200083F33B613B699B00BA6913441B6898478A
:1019300001223B6902FA03F3DB431A467B69134039
:101940007B617B69002BE7D1304BFB62304BBB6284
:10195000FB6A18331A68FB6A14331B6813407B62F6
:101960007B6A002B1CD0FB6A18337A6A1A6014E079
:101970007B6A93FAA3F3B3FA83F33B623B6A9B005F
:10198000BA6A13441B68984701223B6A02FA03F3C0
:10199000DB431A467B6A13407B627B6A002BE7D1EC
:1019A0001C4BFB631C4BBB63FB6B18331A68FB6B54
:1019B00014331B6813407B637B6B002B1CD0FB6BC9
:1019C00018337A6B1A6014E07B6B93FAA3F3B3FAC3
:1019D00083F33B633B6B9B00BA6B13441B689847D4
:1019E00001223B6B02FA03F3DB431A467B6B134085
:1019F0007B637B6B002BE7D100BF4037BD4680BDCA
:101A00004809002000400042C80900200080004230
:101A1000480A002000C00042C80A0020044B0548C4
:101A20001B1A062B02D9044B03B11847704700BF9D
:101A300063180020601800200000000005490648D7
:101A4000091A891001EBD171491002D0034B03B17F
:101A50001847704760180020601800200000000040
:101A600010B5064C237843B9FFF7D8FF044B13B1E8
:101A70000448AFF300800123237010BD60180020DC
:101A800000000000C47C000008B5084B1BB10849E9
:101A90000848AFF300800848036813B9BDE8084060
:101AA000CCE7064B002BF9D09847F7E70000000081
:101AB00064180020C47C00006018002000000000B2
:101AC00080B483B000AFEFF310837B6072B67B68A5
:101AD000002B0CBF01230023DBB218460C37BD4698
:101AE0005DF8047B704780B483B000AF0346FB71A0
:101AF000FB79002B00D062B600BF0C37BD465DF805
:101B0000047B704780B483B000AFEFF310837B6039
:101B100072B67B68002B0CBF01230023DBB2184692
:101B20000C37BD465DF8047B704780B483B000AFCE
:101B30000346FB71FB79002B00D062B600BF0C3767
:101B4000BD465DF8047B704780B500AF00F002F839
:101B500000BF80BD80B582B000AFFFF7B1FF034684
:101B6000FB71154B1B683B603B68002B1BD03B682F
:101B70005B69114A1360104B1B68002B04D00E4B9D
:101B80001B6800229A6102E00C4B00221A60FB796C
:101B90001846FFF7A8FF3B6800225A773B689B680E
:101BA00038689847D9E7FB791846FFF79CFF00BFD4
:101BB00000BF0837BD4680BD84180020881800206B
:101BC00080B485B000AF78603A4B1B68002B09D118
:101BD0007B6800229A607B680022DA60354A7B6865
:101BE00013605EE07B681A68324B1B681B689A4280
:101BF00017D2304B1A687B689A607B680022DA60E3
:101C00002C4B1B687A68DA602A4B1B68294A1268D9
:101C100011687A6812688A1A1A60264A7B6813600B
:101C20003FE0244B1B68FB60FB689B68002B28D0BF
:101C30007B681A68FB681B68D21A7B681A60FB68AD
:101C40009B68FB607B681A68FB681B689A42EBD252
:101C50007B68FA689A60FB68DA687B68DA60FB6820
:101C60007A68DA607B68DB687A689A60FB681A6871
:101C70007B681B68D21AFB681A607B6802221A759F
:101C800012E07B681A68FB681B68D21A7B681A60CE
:101C90007B6800229A607B68FA68DA60FB687A6881
:101CA0009A607B6802221A751437BD465DF8047B82
:101CB000704700BF9418002080B586B000AF2B4B52
:101CC0001B687B617B69002B31D07B691B68002B13
:101CD00005D07B691B685A1E7B691A6027E07B6907
:101CE0009B68FB60FB68002B02D0FB680022DA6077
:101CF0001E4AFB6813607B6900221A757B691B69A9
:101D0000BB60BB681B681B687A690021B86898478C
:101D10007B695B68002B06D07B695A687B691A6017
:101D20007869FFF74DFF114B1B687B61CAE7FFF72E
:101D3000E9FE0346FB710E4B1B683B610C4B002216
:101D40001A60FB791846FFF7F0FE3B69002B08D0BC
:101D50003B699B683B603869FFF732FF3B683B613A
:101D6000F3E700BF1837BD4680BD00BF94180020C0
:101D70009018002080B500AF064B1B68064A136020
:101D8000064B1B680133054A1360FFF795FF00BF40
:101D900080BD00BF041000E0781E0020741E0020EB
:101DA00080B487B000AF4FF480737B61EFF313838F
:101DB0003B613B69002B02D04FF0FF3325E0EFF38E
:101DC0001083FB60FB68002B01D000231DE0EFF3C4
:101DD0000583BB60BB68002B0AD0BB680F2B02D801
:101DE00000237B6104E0BA680B4B13441B787B61D2
:101DF000EFF311837B607B68002B05D07A687B69E9
:101E00009A4201D27B687B617B6918461C37BD46CC
:101E10005DF8047B704700BFF0E300E080B592B04E
:101E200000AFF860B9601346FB80BB6807EE903ADC
:101E3000B8EE677ADFEDA66AC6EE877AC7ED0A7A52
:101E4000A44B7B6401237B6104233B640423FB6379
:101E5000FB6B202B51DCFB6B07EE903AB8EEE77A78
:101E6000D7ED0A6AC6EE877AC7ED097AD7ED097A07
:101E7000B6EE007A77EE877AFDEEE77A17EE903AC3
:101E8000BB63BB6B002B02DC0123BB6306E0BB6BB7
:101E9000B3F5005F02DB41F6FF73BB63BB6B07EE7C
:101EA000903AB8EEE77AD7ED097A77EE676A97ED60
:101EB000097AC6EE877AC7ED0D7AD7ED0D7AF5EE81
:101EC000C07AF1EE10FA05D5D7ED0D7AF1EE677A0A
:101ED000C7ED0D7A97ED0D7AD7ED117AB4EEE77A6A
:101EE000F1EE10FA05D87B6B7B64BB6B7B61FB6BFF
:101EF0003B64FB6B0133FB63AAE7FB680022A3F89A
:101F00004A20FB680022A3F84C20FB680022A3F8BB
:101F10004620FB680022A3F84820FB689B6BFA6808
:101F20005269B2F858209A1AFB68DA63FB689B6B17
:101F3000FA685269B2F85A209A1AFB681A64FB6868
:101F4000002283F84420FB685B69DB68FA68526909
:101F5000D2681168FA68526912690A431A60FB680C
:101F60005A69FB681B7E01331B01134404331B7841
:101F7000594A1B01134408331B68584A1A60FB680E
:101F80005A69FB681B7E01331B01134404331B7821
:101F9000514A1B01134404331B68FA685169FA68FB
:101FA000127E013212010A44083212681A60FB687C
:101FB0005A69FB681B7E1B0113441C331B68002BF2
:101FC00010D0FB685A69FB681B7E1B0113441C334D
:101FD0001B68FA685169FA68127E12010A442032BD
:101FE00012681A60FB685A69FB685B7E03331B0149
:101FF000134404331B78384A1B01134408331B680D
:10200000D9221A60FB685A69FB685B7E03331B01A7
:10201000134404331B78304A1B01134404331B68F8
:10202000FA685169FA68527E033212010A44083292
:1020300012681A60FB681B693A6C013A120602F0DA
:10204000F8517A69C2F30C020A431A61FB681B69F2
:102050000022DA60FB685B695A78FB685B695B6841
:10206000FA77BB61FB7F10331D49BA6941F8232021
:10207000FB685B695B781A461A4B13441A46FB6887
:102080005B69B3F85630DBB21370FB685B695B7851
:102090005B111A46144B13449B001946FB685B699D
:1020A0005B7803F01F03012202FA03F30B60FB6865
:1020B0001B699B6A1B099BB29B009BB203F01C032C
:1020C0007B847B8C0F2B11DC7B8C5B10DBB20EE0F6
:1020D000001BB74BEC78AD60D400002038F0010055
:1020E0000030002000E400E0403800380723FB7493
:1020F000FB681B699B6A9BB29B009BB203F01C03AD
:102100003B843B8C0F2B03DC3B8C5B10DBB200E091
:102110000723BB74FB681B69BA7C120402F44031CC
:10212000FA7C02F003020A43DA62FB681B69FA6870
:102130001269926A42F088029A624FF470133B630C
:10214000FB8803F003033A6B13433B63FB8803F004
:102150000403002B03D03B6B43F010033B63FB886D
:1021600003F00F03042B03D13B6B43F080433B632D
:10217000FB8803F02003002B03D03B6B43F080531C
:102180003B63FB681B693A6B9A61FB8803F00803A9
:10219000002B07D0FB681B69FA681269126942F0CC
:1021A00000521A61FB681B695B6923F08053FB6274
:1021B000FB8803F01003002B03D0FB6A43F080532D
:1021C000FB62FB681B69FA6A5A61FB8803F480733F
:1021D000002B07D0FB681B69FA681269126942F488
:1021E00000521A61F86800F053FB00BF4837BD4643
:1021F00080BD00BF80B483B000AF78607B689B6D0A
:1022000088337A68D26D1A6000BF0C37BD465DF81E
:10221000047B704780B483B000AF78607B689B6DAF
:1022200084337A68D26D1A6000BF0C37BD465DF802
:10223000047B704780B485B000AF78607B68B3F8EA
:1022400046309BB2FB607B68B3F848309BB2BB6002
:10225000FA68BB689A4207D37B685A6BFB68D21A4C
:10226000BB681344013B03E0BA68FB68D31A013B27
:1022700018461437BD465DF8047B704780B485B0BE
:1022800000AF78607B68B3F84A309BB2FB607B6834
:10229000B3F84C309BB2BB60FA68BB689A4203D378
:1022A000FA68BB68D31A05E07B689A6BFB681A442E
:1022B000BB68D31A18461437BD465DF8047B7047D7
:1022C00080B485B000AF78607B68B3F84A309BB2C9
:1022D000BB607B68B3F84C309BB2FB60BA68FB68AC
:1022E0009A4202D14FF0FF3323E0FB680133FB60D9
:1022F0007B689B6BFA689A422CBF01230023DBB2F8
:10230000002B01D00023FB607B681A6BFB689A42AC
:1023100006D97B681A6AFB6813441B78DBB208E0B5
:102320007B685A6A7B681B6BF968CB1A13441B786D
:10233000DBB218461437BD465DF8047B704780B5A4
:1023400086B000AF78607B68B3F84A309BB2BB6060
:102350007B68B3F84C309BB27B61BA687B699A4268
:1023600002D14FF0FF3347E07B6901337B617B682B
:102370009B6B7A699A422CBF01230023DBB2002BAE
:1023800001D000237B617B681A6B7B699A4207D975
:102390007B681A6A7B6913441B78DBB23B6109E0F6
:1023A0007B685A6A7B681B6B7969CB1A13441B786C
:1023B000DBB23B617B699AB27B68A3F84C207B68F7
:1023C0009B6D002B17D0BA687B699A4204D3BA6818
:1023D0007B69D31AFB6006E07B689A6BBB681A4482
:1023E0007B69D31AFB607B68DA6BFB689A4202D385
:1023F0007868FFF7FFFE3B6918461837BD4680BD79
:1024000080B582B000AF78607B6893F84430DBB26F
:10241000002B14BF01230023DBB2002B02D002F0FB
:10242000F1FFF1E700BF0837BD4680BD80B582B03F
:1024300000AF78600B46FB70FB781946786800F0B7
:1024400005F8034618460837BD4680BD80B586B0FE
:1024500000AF786039607B681B6D002B05D07B680E
:102460001B6D84337A68526D1A607B68B3F846300E
:102470009BB27B617B6901337B617B685B6B7A69B3
:102480009A422CBF01230023DBB2002B01D0002392
:102490007B617B68B3F848309BB21A467B699A42ED
:1024A0000CBF01230023DBB2002B51D0FFF778FCD7
:1024B000B8607B685B69B3F856301A46BB689A42CD
:1024C00040DB7B681B695B6903F40003002B14BFCE
:1024D00001230023DBB2002BDBD07B68B3F848304C
:1024E0009BB2FB60FB680133FB607B685B6BFA6847
:1024F0009A422CBF01230023DBB2002B01D0002322
:10250000FB607B68DA6AFB689A4207D97B68DA6904
:10251000FB6813441B78DBB23B6109E07B689A6A75
:102520007B68DB6AF968CB1A13441B78DBB23B612A
:102530007B681B693A69DA61FB689AB27B68A3F829
:102540004820A6E7BB68FF2BA3DD02F05BFFA0E7F6
:102550007B68DA6A7B699A4207D97B68DA697B69AA
:1025600013443A68D2B21A7009E07B689A6A7B68B1
:10257000DB6A7969CB1A13443A68D2B21A7072B620
:102580007B68012283F844207B699AB27B68A3F8B8
:1025900046207B681B697A681269926942F40002DE
:1025A0009A6162B6012318461837BD4680BD80B5D2
:1025B0008AB000AF78607B681B695B6903F44013E5
:1025C000002B14BF01230023DBB2002B00F08C8012
:1025D0007B681B69DB6A1B0EDBB203F00703FB762B
:1025E000FB7E002B6CD07B68B3F84A309BB27B62D9
:1025F0007B68B3F84C309BB23B627B681B69DB693C
:10260000C3F30903FB617B6A01337B617B689A6BCF
:102610007B699A4201D800237B617B68B3F84C3018
:102620009BB21A467B699A4214BF01230023DBB296
:10263000002B18D07B697B627B681A6B7B699A429E
:1026400007D97B681A6A7B6A1344FA69D2B21A7096
:1026500009E07B685A6A7B681B6B796ACB1A134462
:10266000FA69D2B21A70FB7E013BFB76FB7E002B2F
:10267000CCBF01230023DBB2002B00D0BDE77B6A77
:102680009AB27B68A3F84A207B689B6D002B17D019
:102690007A6A3B6A9A4204D37A6A3B6AD31A3B61EC
:1026A00006E07B689A6B7B6A1A443B6AD31A3B61EB
:1026B0007B681A6C3B699A4202D87868FFF7AAFDDA
:1026C0007B681B695B6903F48013002B14BF012333
:1026D0000023DBB2002B07D07B681B697A68126984
:1026E000526942F480125A617B681B699B69FB60E6
:1026F000FB6803F40003002B08D07B681B695B694F
:1027000003F40003002B01D0012300E00023002B81
:102710005FD07B68B3F846309BB27B627B68B3F8CE
:1027200048309BB23B627A6A3B6A9A4237D03B6A36
:1027300001333B627B685B6B3A6A9A422CBF012390
:102740000023DBB2002B01D000233B627B68DA6AF6
:102750003B6A9A4207D97B68DA693B6A13441B7863
:10276000DBB2FB6109E07B689A6A7B68DB6A396AE5
:10277000CB1A13441B78DBB2FB617B681B69FA69D7
:10278000DA617B681B69DB6A1B0A03F00703032B12
:1027900094BF01230023DBB2002B01D0C3E700BFAD
:1027A0003B6A9AB27B68A3F848207A6A3B6A9A42ED
:1027B0000FD17B681B697A681269926922F4000262
:1027C0009A617B681B697A681269926942F4800297
:1027D0009A61FB6803F48003002B08D07B681B69B7
:1027E0005B6903F48003002B01D0012300E0002388
:1027F000002B15D07B68002283F844207B681B6D7A
:10280000002B05D07B681B6D88337A68526D1A6087
:102810007B681B697A681269926922F480029A6166
:1028200000BF2837BD4680BD80B582B000AF164BD3
:102830001B78002B21D0144B1B78FB710023BB713C
:10284000BB79072B1CDCBB79104A52F82330002BD4
:102850000FD0BB790D4A52F823309847FB79013BE2
:10286000FB71FB79002B0CBF01230023DBB2002B93
:1028700005D1BB790133BB71E2E700BF00E000BFC7
:102880000837BD4680BD00BFB4180020981800204E
:1028900080B483B000AF78607B685B691B781A46B0
:1028A0000D4B53F82230002B0FD17B685B691B78EE
:1028B00019467B685B699B68074A42F82130074BE1
:1028C0001B780133DAB2054B1A7000BF0C37BD46D6
:1028D0005DF8047B704700BF98180020B4180020F2
:1028E00080B483B000AF78607B685B691B781A4660
:1028F0000C4B53F82230002B0DD07B685B691B78A2
:102900001946084B002243F82120074B1B78013B56
:10291000DAB2054B1A7000BF0C37BD465DF8047B78
:10292000704700BF98180020B418002080B483B00E
:1029300000AF7860064A7B681A607B6800221A71D3
:102940007B6818460C37BD465DF8047B704700BFB6
:10295000C400002080B483B000AF78600023184624
:102960000C37BD465DF8047B704780B483B000AF80
:10297000786000BF0C37BD465DF8047B70470000EF
:1029800080B582B000AF78607B681846FFF7CEFF55
:10299000074A7B681A607B684FF47A729A607B689A
:1029A00000221A737B6818460837BD4680BD00BFF9
:1029B0008800002080B584B000AFF860B9607A600C
:1029C0003B60FB681846FFF7DBFF294AFB681A608B
:1029D000FB68BA681A61FB687A685A61FB68002272
:1029E0001A76FB6800225A76FB683A68DA61FB685F
:1029F000FA691A62FB6800225A62FB6800229A6236
:102A0000FB68BA69DA62FB683A6A1A63FB68BA69FA
:102A10005A63FB683A6A9A63FB680022DA63FB68D0
:102A200000221A64FB68002283F84420FB6800221D
:102A3000A3F84620FB680022A3F84820FB68002288
:102A4000A3F84A20FB680022A3F84C20FB68002270
:102A50001A65FB6800225A65FB6800229A65FB68CC
:102A60000022DA65FB6818461037BD4680BD00BFFE
:102A70000800002080B500AF0248FFF798FD00BFB6
:102A800080BD00BF3819002080B500AF0748FFF7B0
:102A9000F5FB0346002B14BF01230023DBB2002B00
:102AA00001D000F005F800BF80BD00BF381900203C
:102AB00080B500AF0248FFF713FF00BF80BD00BF25
:102AC0003819002080B586B004AF786039607B6823
:102AD000012B10D13B684FF6FF7293420BD140237C
:102AE0000293074B019340230093064B064A074984
:102AF0000748FFF75FFF00BF0837BD4680BD00BF36
:102B0000F8180020B8180020240000200080194088
:102B10003819002080B500AF4FF6FF710120FFF794
:102B2000D1FF80BD80B500AF0248FFF740FD00BF78
:102B300080BD00BF001A002080B500AF0748FFF736
:102B40009DFB0346002B14BF01230023DBB2002BA7
:102B500001D000F005F800BF80BD00BF001A0020C2
:102B600080B500AF0248FFF7BBFE00BF80BD00BFCD
:102B7000001A002080B586B004AF786039607B68A9
:102B8000012B10D13B684FF6FF7293420BD14023CB
:102B90000293074B019328230093064B064A0749EB
:102BA0000748FFF707FF00BF0837BD4680BD00BFDD
:102BB000C0190020981900200807002000001940C3
:102BC000001A002080B500AF4FF6FF710120FFF71B
:102BD000D1FF80BD80B500AF0248FFF7E8FC00BF21
:102BE00080BD00BFC81A002080B500AF0748FFF7BE
:102BF00045FB0346002B14BF01230023DBB2002B4F
:102C000001D000F005F800BF80BD00BFC81A002049
:102C100080B500AF0248FFF763FE00BF80BD00BF74
:102C2000C81A002080B586B004AF786039607B6830
:102C3000012B10D13B684FF6FF7293420BD140231A
:102C40000293074B019328230093064B064A07493A
:102C50000748FFF7AFFE00BF0837BD4680BD00BF85
:102C6000881A0020601A00206407002000801840A5
:102C7000C81A002080B500AF4FF6FF710120FFF7A2
:102C8000D1FF80BD80B500AF0248FFF790FC00BFC8
:102C900080BD00BF901B002080B500AF0748FFF744
:102CA000EDFA0346002B14BF01230023DBB2002BF7
:102CB00001D000F005F800BF80BD00BF901B0020D0
:102CC00080B500AF0248FFF70BFE00BF80BD00BF1C
:102CD000901B002080B586B004AF786039607B68B7
:102CE000012B10D13B684FF6FF7293420BD140236A
:102CF0000293074B019328230093064B064A07498A
:102D00000748FFF757FE00BF0837BD4680BD00BF2C
:102D1000501B0020281B0020C007002000C01840C6
:102D2000901B002080B500AF4FF6FF710120FFF728
:102D3000D1FF80BD80B500AF0248FFF738FC00BF6F
:102D400080BD00BF581C002080B500AF0748FFF7CA
:102D500095FA0346002B14BF01230023DBB2002B9E
:102D600001D000F005F800BF80BD00BF581C002056
:102D700080B500AF0248FFF7B3FD00BF80BD00BFC4
:102D8000581C002080B586B004AF786039607B683D
:102D9000012B10D13B684FF6FF7293420BD14023B9
:102DA0000293074B019328230093064B064A0749D9
:102DB0000748FFF7FFFD00BF0837BD4680BD00BFD5
:102DC000181C0020F01B00201C08002000001A40E6
:102DD000581C002080B500AF4FF6FF710120FFF7AF
:102DE000D1FF80BD80B500AF0248FFF7E0FB00BF18
:102DF00080BD00BF201D002080B500AF0748FFF751
:102E00003DFA0346002B14BF01230023DBB2002B45
:102E100001D000F005F800BF80BD00BF201D0020DC
:102E200080B500AF0248FFF75BFD00BF80BD00BF6B
:102E3000201D002080B586B004AF786039607B68C3
:102E4000012B10D13B684FF6FF7293420BD1402308
:102E50000293074B019328230093064B064A074928
:102E60000748FFF7A7FD00BF0837BD4680BD00BF7C
:102E7000E01C0020B81C002078080020004018400A
:102E8000201D002080B500AF4FF6FF710120FFF735
:102E9000D1FF80BD80B500AF0248FFF788FB00BFBF
:102EA00080BD00BFE81D002080B500AF0748FFF7D8
:102EB000E5F90346002B14BF01230023DBB2002BEE
:102EC00001D000F005F800BF80BD00BFE81D002064
:102ED00080B500AF0248FFF703FD00BF80BD00BF13
:102EE000E81D002080B586B004AF786039607B684B
:102EF000012B10D13B684FF6FF7293420BD1402358
:102F00000293074B019328230093064B064A074977
:102F10000748FFF74FFD00BF0837BD4680BD00BF23
:102F2000A81D0020801D0020D408002000C01940EA
:102F3000E81D002080B500AF4FF6FF710120FFF7BC
:102F4000D1FF80BD80B584B000AFF8600B467A60D9
:102F5000FB72F97A7B68DAB20023F86800F0EBF8CC
:102F6000034618461037BD4680BD000080B483B0CC
:102F700000AF7860044A7B681A607B6818460C379B
:102F8000BD465DF8047B7047B800002080B582B074
:102F900000AF786039607B681846FFF7E7FF054AA5
:102FA0007B681A607B683A685A607B681846083705
:102FB000BD4680BDAC00002080B584B000AF786015
:102FC00039600023FB607A68FB68134404331B7884
:102FD0000A2219463868FFF7B5FFFB680133FB602A
:102FE000FB68032BCCBF01230023DBB2002B01D0F5
:102FF000042306E03B681B681B682E21386898474D
:10300000E1E718461037BD4680BD000080B582B0AC
:1030100000AF786039607B68012B08D13B684FF6C0
:10302000FF72934203D100210348FFF7AFFF00BFB7
:103030000837BD4680BD00BF481E002080B500AFE8
:103040004FF6FF710120FFF7E1FF80BD80B487B02C
:1030500000AF78607B681B68002B32D07B681B68F0
:103060001A461B4B13441B113B611A4A3B69002152
:1030700042F823107B681B6800229A60164A3B695D
:103080001344FF221A70FF23FB7300237B617B69CB
:10309000032B10DCFB7B19460F4A7B6913441B781A
:1030A000994204DD0C4A7B6913441B78FB737B69EE
:1030B00001337B61EBE7094BFA7B1A707B680022D6
:1030C0001A6000BF1C37BD465DF8047B704700BF27
:1030D00000BFF7BF601E0020300900207AE400E046
:1030E00080B586B000AFF860B9607A60BB68002B2D
:1030F00001D100231BE000237B617B685A1E7A60AC
:10310000002B14BF01230023DBB2002B0ED0FB6881
:103110001B681A68BB68591CB9601B781946F868A7
:10312000904702467B6913447B61E6E77B6918465A
:103130001837BD4680BD80B58EB000AFF860B9606D
:1031400011461A460B46FB711346BB71FB79002BE7
:1031500009D1FB681B681B68BA68D2B21146F868CF
:10316000984703465DE0FB79012B01D10A23FB71EF
:10317000BB68002B06D1302387F83530212387F830
:1031800037302EE0212387F83730FA79BB68B3FB5C
:10319000F2F102FB01F29B1A87F8363097F83720DC
:1031A00097F83630092B04DC97F836303033DBB231
:1031B00003E097F836303733DBB207F138010A44C1
:1031C00002F8243CFB79BA68B2FBF3F3BB60BB683E
:1031D000002B05D097F83730013B87F83730D4E71C
:1031E00000BFBB79002B0CD097F83730013B87F834
:1031F000373097F8373007F1380213442D2203F89F
:10320000242CFB681B6804331B6897F8372007F1F0
:103210001401114497F83720C2F12202F868984748
:10322000034618463837BD4680BD80B582B000AF32
:1032300078607868FFF70AFF7B6818460837BD4654
:1032400080BD000080B582B000AF786039607B68D7
:10325000012B09D13B684FF6FF72934204D1044A17
:103260000449054805F018F900BF0837BD4680BD80
:1032700004070020BB1900003409002080B500AF0E
:103280004FF6FF710120FFF7DDFF80BD80B48FB0E6
:1032900000AF78606D4B5B697B636C4B9B693B61F6
:1032A0006B4BDB683B6340F27E43FB627B68694AA1
:1032B00093421ED940F2E243FB627B68664A934226
:1032C0001ED97A68654B13441B0A654AA2FB032387
:1032D000DA0913469B0013449A001344FA6A134414
:1032E000FB62FB6AB3F5C56F0AD340F22763FB624A
:1032F00006E07B685B4A934202D840F2B633FB6239
:10330000524A524BD3F8803043F0C003C2F88030A9
:103310003B6B03F01F02FB6AA3F548735249A1FB04
:103320000313DB0803F01F039A4217D23B6B23F011
:103330001F033B63FB6AA3F548734B4AA2FB0323BD
:10334000DB0803F01F033A6B13433B63404A3B6BBC
:10335000D36000BF3E4B1B68002BFBDA7B6B03F096
:103360000073002B52D1414BFB60414B1A69FB6843
:103370001A40FB689A4204D10023BB6203237B629C
:1033800003E00123BB6200237B627B6ADA067B6B6E
:10339000534003F06053002B0DD07B6B23F0605340
:1033A0007B637B6ADB0603F060537A6B13437B63BA
:1033B000264A7B6B5361BB6A1A033B69534003F493
:1033C0004053002B14D03B6923F440533B61BB6A4C
:1033D0001B0303F440533A6913433B611B4A3B69A7
:1033E000936100BF194B9B6C03F00803002BF9D1CC
:1033F0007B6B43F000737B63144A7B6B536100BFAC
:10340000124B9B6C03F02003002BF9D101233B628C
:103410000123FB610EE03B6A072B03D83B6A0133B3
:103420003B6207E0FB69042B26D8FB690133FB6193
:1034300001233B627B683A6A02FB03F3FA6902FBF1
:1034400003F30C4A9342E6D917E000BF00C00F40D7
:103450000000084000A4781F0046C32300BA3CDCEB
:1034600023B24C0000366E011F85EB5140300080C6
:1034700000800D40FFB19F2600BF7B683A6A02FBC7
:1034800003F3FA6902FB03F26B4B13446B4AA2FB92
:1034900003231B0DBB61BB696C2B01D96C23BB6182
:1034A000BB69352B01D83623BB61BB69644A02FB7B
:1034B00003F23B6AB2FBF3F2FB69B2FBF3F37B600E
:1034C000604BBB60604B1A68BB681A40BB6903F075
:1034D0007F015E4B0B439A420FD05B4B4FF48052FF
:1034E0001A60594ABB6903F07F0343F40053136029
:1034F00000BF554B1B68002BFBDA554B1B6903F0D3
:1035000007023B6A013B9A420CD0514A3B6A013B9D
:1035100003F00703136100BF4D4B9B6C03F4803332
:10352000002BF9D1FB69013B9A027B6B534003F4FA
:10353000E053002B15D07B6B23F4E0537B63FB69D6
:10354000013B9B0203F4E0537A6B13437B63404AD5
:103550007B6B536100BF3E4B9B6C03F00203002B5F
:10356000F9D17A683B4B1344DB093B4AA2FB0323A6
:103570001B0B7B617B69042B01D904237B617B6975
:10358000013B1A027B6B534003F44073002B0ED0B7
:103590007B6B23F440737B637B69013B1B0203F469
:1035A00040737A6B13437B63294A7B6B53617B6B5C
:1035B00023F000737B63264A7B6B536100BF244B6F
:1035C0009B6C03F02003002BF9D1244A7B68136025
:1035D0007A687B69B2FBF3F3214A13603B6B03F01B
:1035E0001F02FB6AA3F548731E49A1FB0313DB0806
:1035F00003F01F039A4217D93B6B23F01F033B6371
:10360000FB6AA3F54873174AA2FB0323DB0803F008
:103610001F033A6B13433B63134A3B6BD36000BFFA
:10362000114B1B68002BFBDA7B6818463C37BD4604
:103630005DF8047B704700BF808D5B00819F5E1644
:10364000001BB7007F30018000800D40002000800B
:1036500000C00F407FD1F0089F10E5004009002016
:10366000440900201F85EB510000084080B584B05C
:1036700000AF78607B68002B18D000F06BF8F86022
:1036800009E07B68013B7B607B68002B10D0FB6806
:1036900003F57A73FB6000F05DF80246FB68D31A0D
:1036A000B3F57A7FEDD201F0ADFEF4E700BF00E0A4
:1036B00000BF1037BD4680BD80B489B000AF204B3D
:1036C0007B607B6853E8003F3B601E4B1B68FB61DF
:1036D0001D4B1B68BB6101233B61194BFB60FA6802
:1036E000396942E80013BB60BB68002BE7D1174B78
:1036F0001A68BB69D31A7B61FB6907EE903AB8EE92
:10370000677B9FED0D5B87EE056B7B6907EE903A5B
:10371000B8EE674B0E4B1B6807EE903AB8EE675B4E
:1037200084EE057B36EE077BB0EE470B2437BD46B3
:103730005DF8047B704700BF0000000000408F4030
:10374000CC2E0020741E0020781E0020041000E003
:103750004009002080B48BB000AF1A4BBB60BB683F
:1037600053E8003F7B60184B1B687B62174B1B685C
:103770003B6201237B61134B3B613A69796942E803
:103780000013FB60FB68002BE7D1114B1A683B6A02
:10379000D31AFB617B6A4FF47A7202FB03F20D4B82
:1037A0001B680D49A1FB03139B0CF969B1FBF3F3F3
:1037B0001344BB61BB6918462C37BD465DF8047BDA
:1037C000704700BFCC2E0020741E0020781E002001
:1037D000041000E04009002083DE1B4380B485B064
:1037E00000AF03460A46FB711346BB71FB79272BDA
:1037F00050D8FB791B012A4A1344FB60BB79012B8B
:1038000002D0BB79042B18D1FB681B680433FA681B
:10381000126804321168FA68D2680A431A60BB79E8
:10382000012B04D1FB689B6838221A602DE0FB68ED
:103830009B6840F638021A6027E0FB681B68043377
:10384000FA68126804321168FA68D268D2430A40F2
:103850001A60BB79002B04D1FB689B6838221A6080
:1038600013E0BB79022B04D1FB689B680D4A1A60F8
:103870000BE0BB79032B04D1FB689B680A4A1A60F2
:1038800003E0FB689B68094A1A60FB685B681522C5
:103890001A6000E000BF1437BD465DF8047B704736
:1038A000D400002038F00100383001003800010059
:1038B00080B400AF00BFBD465DF8047B70470000D8
:1038C00080B48FB000AF0346B9607A60FB73FB7BB6
:1038D000272B00F2D180FB7B6B4A1B0113441B6832
:1038E000FB62FB7B684A1B01134404331B68BB6209
:1038F000FB7B654A1B0113440C331B687B62FB6A2C
:10390000624A934210D0614A934203D8B3F1844F84
:1039100007D0B4E05E4A934209D05E4A934209D090
:10392000ADE05D4B7B6308E05C4B7B6305E05C4B8B
:103930007B6302E05B4B7B6300BF9D23FB755A4BAF
:103940003B61FB7D103359493A6941F82320584BBC
:103950004FF000521A607B68042B00F28F8001A2A6
:1039600052F823F01B210000212100001521000046
:103970000F2100000921000000233B630BE002231C
:103980003B6308E003233B6305E000233B6302E065
:1039900001233B6300BFFB6A1433FA6A14321168D7
:1039A0007A6AD2430A401A60BB6A05221A60FB6A2F
:1039B0000433FA6A043211687A6AD2430A401A6000
:1039C0007B6A93FAA3F3B3FA83F33B623B6A9B00EF
:1039D0007A6B1344BA681A607B68042B08D1FB6ABF
:1039E0001C33FA6A1C3211687A6A0A431A6036E09C
:1039F000FB6A1C33FA6A1C3211687A6AD2430A40A5
:103A00001A603B6A0E2B14D83B6A5B00FB61FB6AB1
:103A10000C33FA6A0C3212680320F96900FA01F1DA
:103A2000C9431140386BFA6900FA02F20A431A607E
:103A300015E03A6A1F4B13445B00BB61FB6A10330D
:103A4000FA6A103212680320B96900FA01F1C94319
:103A50001140386BBA6900FA02F20A431A60FB6A35
:103A600018337A6A1A60FB6A1433FA6A14321168DE
:103A70007A6A0A431A6002E000BF00E000BF3C37E8
:103A8000BD465DF8047B7047D40000200040004232
:103A90000080004200C0004248090020C809002000
:103AA000480A0020C80A0020210000000030002041
:103AB00010E100E0F0FFFF7F80B485B000AF034667
:103AC000FB71FB79272B16D8FB790E4A1B01134497
:103AD0001B68FB60FB790B4A1B0113440C331B680A
:103AE000BB60FB681433FA6814321168BA68D243B9
:103AF0000A401A6000E000BF1437BD465DF8047B41
:103B0000704700BFD4000020844641EA000313F050
:103B100003036DD1403A41D351F8043B40F8043BD4
:103B200051F8043B40F8043B51F8043B40F8043B97
:103B300051F8043B40F8043B51F8043B40F8043B87
:103B400051F8043B40F8043B51F8043B40F8043B77
:103B500051F8043B40F8043B51F8043B40F8043B67
:103B600051F8043B40F8043B51F8043B40F8043B57
:103B700051F8043B40F8043B51F8043B40F8043B47
:103B800051F8043B40F8043B51F8043B40F8043B37
:103B900051F8043B40F8043B403ABDD2303211D3D7
:103BA00051F8043B40F8043B51F8043B40F8043B17
:103BB00051F8043B40F8043B51F8043B40F8043B07
:103BC000103AEDD20C3205D351F8043B40F8043BD7
:103BD000043AF9D2043208D0D2071CBF11F8013BD5
:103BE00000F8013B01D30B8803806046704700BF9B
:103BF000082A13D38B078DD010F003038AD0C3F1AA
:103C00000403D21ADB071CBF11F8013B00F8013B8B
:103C100080D331F8023B20F8023B7BE7043AD9D34A
:103C2000013A11F8013B00F8013BF9D20B7803701F
:103C30004B7843708B7883706046704780B489B04E
:103C400000AFF860B9607A600023FB617A68FB68B6
:103C5000B3FBF2F102FB01F29B1A7B61FB69BA68CC
:103C60001A447B69092B05D87B69DBB23033DBB2A0
:103C70005BB204E07B69DBB23733DBB25BB213705B
:103C80007B68FA68B2FBF3F3FB60FB68002B03D0A0
:103C9000FB690133FB61D9E700BFFB690133BA68F7
:103CA000134400221A700023BB6118E0BB69BA6894
:103CB00013441B78FB74BB69BA681344FA69B9688A
:103CC0000A4492F900201A70FB69BA681344FA7C1E
:103CD0001A70BB690133BB61FB69013BFB61BA69C7
:103CE000FB699A42E2DBBB6818462437BD465DF8A3
:103CF000047B704780B485B000AF78607B684FF478
:103D00007042A3F88C217B680F22A3F88E217B6878
:103D10000022A3F890217B68B3F888319BB243F06E
:103D2000F0039AB27B68A3F888210023FB6073E05C
:103D30007968FA6813465B0013445B010B44043353
:103D40004FF460421A807968FA6813465B001344A6
:103D50005B010B4406334FF480621A807968FA687D
:103D600013465B0013445B010B44223300221A808C
:103D70007968FA6813465B0013445B010B443033E7
:103D800000221A807968FA6813465B0013445B01CD
:103D90000B44023300221A807968FA6813465B00EC
:103DA00013445B010B440A3300221A807968FA68D5
:103DB00013465B0013445B010B440E3348F2B822F8
:103DC0001A807968FA6813465B0013445B010B4460
:103DD000123300221A807968FA6813465B00134494
:103DE0005B010B44163300221A807968FA68134687
:103DF0005B0013445B010B441A3300221A8079687C
:103E0000FA6813465B0013445B010B441E33002227
:103E10001A80FB680133FB60FB68032B88DD7B683D
:103E2000B3F888319BB243F00F039AB27B68A3F8D2
:103E300088217B68B3F888319BB243F470639AB2EF
:103E40007B68A3F8882100BF1437BD465DF8047B6A
:103E5000704780B485B000AF78600023FB603CE021
:103E60007A68FB685B0113440C3300221A807A687D
:103E7000FB685B0113440A3300221A807A68FB68EE
:103E80005B0113440E330F221A807A68FB685B01D2
:103E90001344143341F201021A807A68FB685B0113
:103EA0001344063345F6C0521A807A68FB685B01FA
:103EB000134400221A807A68FB685B0113441033B4
:103EC00000221A807A68FB685B0113440C3343F2CA
:103ED00026021A80FB680133FB60FB68032BBFDD01
:103EE00000BF1437BD465DF8047B704780B500AF56
:103EF000124A124B9B6F43F47F0393670F490F4B9A
:103F0000D3F880200E4B1343C1F880300D48FFF7E3
:103F1000F1FE0D48FFF7EEFE0C48FFF7EBFE0C48F4
:103F2000FFF7E8FE0B48FFF794FF0B48FFF791FF00
:103F30000A48FFF78EFF00BF80BD00BF00C00F40E2
:103F4000000003FC00C03D4000003E4000403E40F9
:103F500000803E4000C01D4000001E4000401E404A
:103F600080B400AF00BFBD465DF8047B704780B4ED
:103F700000AF00BFBD465DF8047B704780B400AF62
:103F8000134B144A9A63124B134ADA63134B63229E
:103F90001A60134B00221A60124B03221A60124B54
:103FA000124A1A60124A124B1B6843F08073136066
:103FB000104A104B1B6843F0010313600E4B1B6843
:103FC0000E4A136000BFBD465DF8047B704700BF1A
:103FD00000300020D90200000505000014E000E0D8
:103FE00018E000E010E000E020ED00E000002020FC
:103FF000FCED00E0001000E0041000E0781E00205E
:1040000004207146084203D0EFF3098000F006B89F
:10401000EFF3088000F002B800BF000080B584B064
:1040200000AF78601D4B0522C3F848211B4B382296
:10403000C3F838231A4A1A4B5B6843F008035360ED
:10404000174B0822C3F88420154B0822C3F8882098
:10405000144B1B68144A934202D91448FFF716F90F
:104060000F4B0822C3F884200023FB6002E0FB68AA
:104070000133FB60FB680E4A9342F8D9084B0822D3
:10408000C3F888200023FB6002E0FB680133FB607B
:10409000FB68084A9342F8D9E2E700BF00801F405E
:1040A00000C01B4040090020FF45C32300A3E111CD
:1040B0003F420F003F54890080B584B000AF786064
:1040C0000E4B1B68FB607B68002B12D07B68FA6884
:1040D00013440B4A934207D904F0C8FA02460C2352
:1040E00013604FF0FF3305E07B68FA681344034A1E
:1040F0001360FB6818461037BD4680BD480B002092
:104100000000282080B400AF30BFFDE790B587B035
:1041100000AF834BD3F84431FB60814AFB68C2F89F
:104120004431FB6803F00103002B00F08D807C4BD1
:10413000D3F8AC317B613AE0794A7B69C2F8AC31A3
:10414000774A774BD3F8403143F40053C2F84031FB
:10415000744B9B6A3B60734BDB6A7B60704BD3F89C
:10416000403103F40053002BEAD06D4A6C4BD3F876
:10417000403123F40053C2F84031694B4FF0011233
:10418000C3F8B42100BF664BD3F8B43103F0011378
:10419000002BF8D1644B00221A60D7E9003418468E
:1041A000214600F0CBF85E4BD3F8AC317B617B69E4
:1041B000002BC1D15A4BD3F8BC31BB60BB68002B7C
:1041C00042D0574ABB68C2F8BC31574B1A68BB682B
:1041D0001340002B04D0544B00221A6000F038FB2F
:1041E000524B1B68BA681340BB60BB68002B2BD0D6
:1041F00002233B6125E001223B6902FA03F31A46E0
:10420000BB681340002B07D03B69DB011A46454BC6
:104210001344184600F062FC3B691033012202FA95
:1042200003F31A46BB681340002B07D03B69DB0140
:1042300040333C4A1344184600F050FC3B690133BC
:104240003B613B69042BD6DDFB6803F04003002B88
:104250001ED0334A324BD3F8AC31C2F8AC31304ABD
:104260002F4BD3F8BC31C2F8BC3100BF2C4BD3F874
:10427000B031002BFAD12A4B4FF0FF32C3F8B421F2
:10428000274BD3F8843100F09BFD284B00221A60A5
:10429000FB6803F08073002B06D0254B1B68002BB6
:1042A00002D0234B1B689847FB6803F00073002B78
:1042B00006D0204B1B68002B02D01E4B1B68984772
:1042C000FB6803F00403002B02D0154BD3F88431B4
:1042D000134BD3F8483103F08003002B1CD0FB684C
:1042E00003F08003002B17D0134B1B78002B0BD04F
:1042F000114B1B78013BDAB20F4B1A700E4B1B7837
:10430000002B09D1FBBE07E0054A054BD3F8483125
:1043100023F08003C2F8483100BF1C37BD4690BD72
:1043200000002E4000500020981E00209C1E0020FF
:10433000B01E0020B41E0020AC1E002090B58BB033
:1043400000AFC7E9000100237B62D7E90034C7E969
:1043500002343B8940F28162934218DCB3F5D06F9E
:1043600080F2F880B3F5817F00F0C780B3F5817FDC
:1043700004DC802B56D0822B60D03FE140F2023229
:10438000934200F08C80B3F5A06F1BD036E142F26F
:104390002102934200F01D8142F22102934206DC89
:1043A000B3F5086F33D0B3F5106F18D026E142F2A1
:1043B0002122934200F0FF8042F22132934200F02A
:1043C00002811BE100220021002000F0BDF98F4A8C
:1043D0007B895B0643F08073C2F8543113E17B891B
:1043E000DAB28B4B1A70894B8A4AC3F8C821874BC3
:1043F000894AC3F8CC21854B884AC3F8D02100F004
:10440000E7FC00220021002000F09EF9FBE0804B39
:104410001B78DAB2824B1A7000220121804800F02A
:104420000FF9F0E07E4B00221A707D4B00225A708B
:10443000002202217A4800F003F9E4E0BB8903F08E
:104440007F03FB61FB69072B00F2D180BB8903F07E
:104450008003BB61FB699A00724B13441B687B614C
:104460006F4B00221A706E4B00225A70BB69002BF2
:1044700004D07B6903F48033002B07D1BB69002B88
:1044800007D17B6903F00103002B02D0644B0122AA
:104490001A7000220221624800F0D2F8B3E0BB8912
:1044A00003F07F03FB61FB69072B00F2A280BB894D
:1044B00003F08003BB61BB69002B0CD0FB699A0041
:1044C000584B1344FA699100564A0A44126842F460
:1044D00080321A600BE0FB699A00524B1344FA6970
:1044E0009100504A0A44126842F001021A60002208
:1044F0000021002000F028F985E0BB8903F07F034C
:10450000FB61FB69072B76D8BB8903F08003BB6195
:10451000BB69002B0CD0FB699A00424B1344FA692B
:104520009100404A0A44126822F480321A600BE07B
:10453000FB699A003B4B1344FA699100394A0A44DB
:10454000126822F001021A6000220021002000F00F
:10455000FBF858E0344B3B6228E07A893B6A1B88C1
:104560009A4220D1BA893B6A5B889A421BD17B89E7
:104570001B0A9BB2032B04D13B6A5B681B787B62EE
:1045800002E03B6A1B897B62FB891A467B6A9A427E
:1045900001D2FB897B623B6A5B680022796A18461C
:1045A00000F04EF82FE03B6A0C333B623B6A5B68DD
:1045B000002BD2D122E01D4B1B681D4A13607B8962
:1045C000DAB21C4B1A7000220021002000F0BCF867
:1045D00019E0FB89072B10D1174AD7E90034C2E94B
:1045E000003401220721154800F0AEF80BE000BFAF
:1045F00004E000BF02E000BF00E000BF034B4FF04B
:104600000112C3F8C0212C37BD4690BD00002E40DA
:10461000A01E00200200CC00C80002000200C8005A
:10462000B81E0020C0012E4054030020741E00203C
:1046300088520020C01E0020901E0020A41E0020D2
:1046400080B487B000AFF860B9607A60BB68002BB7
:1046500035D0384B01221A60BB681B0443F080033D
:10466000344A5360FB687B61324A7B6993607B69A3
:1046700003F580532F4AD3607B6903F500532D4A1D
:1046800013617B6903F540532A4A53617B6903F543
:104690008043284A9361274A274B9A64264B00227D
:1046A000DA64264A254BD3F8B03143F48033C2F89C
:1046B000B03100BF214BD3F8B031002BFAD1204BE1
:1046C00001221A607B68002B02D048F2800300E0D0
:1046D00080231B4A53601A4B00229A60184A164BDB
:1046E0009A60154B0022DA60144A144BD3F8BC319F
:1046F00043F00113C2F8BC31104A104BD3F8B0316B
:1047000043F00103C2F8B0317B68002B14BF0123D2
:104710000023DBB21A460B4B1A6000BF074BD3F8DD
:10472000B031002BFAD100BF1C37BD465DF8047BC9
:10473000704700BF004000200050002000002E40C5
:1047400020400020981E002080B487B000AFF860A1
:10475000B9607A60BB68002B35D0384B01221A60F3
:10476000BB681B0443F08003344A5360FB687B61E1
:10477000324A7B6993607B6903F580532F4AD3608B
:104780007B6903F500532D4A13617B6903F54053A0
:104790002A4A53617B6903F58043284A9361274A7B
:1047A000274B9A60264B0022DA60264A254BD3F825
:1047B000B03143F00103C2F8B03100BF214BD3F850
:1047C000B031002BFAD1204B01221A607B68002BFC
:1047D00002D048F2800300E080231B4A53601A4B4A
:1047E00000229A60184A164B9A64154B0022DA642C
:1047F000144A144BD3F8BC3143F00113C2F8BC3156
:10480000104A104BD3F8B03143F48033C2F8B031C2
:104810007B68002B02D04FF4803300E000230B4A6A
:10482000136000BF074BD3F8B031002BFAD100BFA3
:104830001C37BD465DF8047B704700BF0040002078
:104840000050002000002E4020400020981E002034
:1048500090B583B000AF114BD3E90034C7E9003401
:104860003B8842F22102934213D107220C490D48A2
:10487000FFF74AF90B4B1B68862B0AD10A4A0A4BF1
:10488000D3F8483143F08003C2F84831074B502237
:104890001A7000BF0C37BD4690BD00BF901E0020AF
:1048A000A41E00208052002000002E40AC1E0020DC
:1048B00080B584B000AFF860B9607A604022002112
:1048C000F86804F01FFAFB68BA681A60FB680122F6
:1048D0009A60FB687A689A6300BF1037BD4680BD56
:1048E00080B586B000AFF860B9607A603B60BB68A5
:1048F0001A047B68002B01D0002301E04FF0005325
:1049000013437B61FB68012B19D9FB68042B16D874
:10491000FB68DB010C4A13443A6879691846FFF7D3
:10492000C7FF3B68002B0BD00122FB6802FA03F3A0
:104930001A46064B1B681343044A136000E000BF8D
:104940001837BD4680BD00BF005000209C1E0020CF
:1049500080B586B000AFF860B9607A603B60BB6834
:104960001A047B68002B01D0002301E04FF00053B4
:1049700013437B61FB68012B1BD9FB68042B18D800
:10498000FB68DB0140330D4A13443A6879691846E5
:10499000FFF78EFF3B68002B0CD0FB681033012221
:1049A00002FA03F31A46064B1B681343044A1360CA
:1049B00000E000BF1837BD4680BD00BF005000209A
:1049C0009C1E002080B487B000AFF860B9607A60A8
:1049D0003B60FB6801221A607B681B0443F0800285
:1049E000FB685A60BB687B61FB687A699A607B6987
:1049F00003F58052FB68DA607B6903F50052FB68BF
:104A00001A617B6903F54052FB685A617B6903F5C3
:104A10008042FB689A61FB683A68DA6100BF1C3724
:104A2000BD465DF8047B704780B487B000AFF86086
:104A3000B9607A60FB689B6B002B05D07B685B6874
:104A400043F400427B685A6072B6FB685B6B7B6123
:104A50007B69002B21D07A687B691A601E4BD3F8E2
:104A6000B021BB681340002B29D11B4A1A4BD3F845
:104A7000403143F48043C2F84031174BD3F8B8318A
:104A80003B61154BD3F8403103F48043002BECD04D
:104A90003A69BB681340002B13D17A68FB689A60AF
:104AA000FB680022DA600C490B4BD3F8B021BB68DD
:104AB0001343C1F8B031FB687A681A6302E000BFA3
:104AC00000E000BFFB687A685A6362B600BF1C371B
:104AD000BD465DF8047B704700002E4080B584B071
:104AE00000AF78607B681B6BFB6018E0FB685B685D
:104AF00003F08003002B0CD1FB681B68BB607B6854
:104B00009B6BF86898477B685A6BBB689A4204D1E4
:104B10000BE07B68FA681A630DE0BB68FB60FB681A
:104B2000002B02D0FB68012BE0D17B6800221A63C6
:104B30007B6800225A631037BD4680BD80B584B0C3
:104B400000AF786039607B68012B14DD7B68042B33
:104B500011DC7B68DB014033094A1344FB607B684E
:104B60001033012202FA03F3BB603A68B968F868AF
:104B7000FFF75AFF00E000BF1037BD4680BD00BF01
:104B80000050002080B584B000AF786039607B6849
:104B9000012B13DD7B68042B10DC7B68DB011A46DC
:104BA000084B1344FB6001227B6802FA03F3BB60ED
:104BB0003A68B968F868FFF737FF00E000BF1037C0
:104BC000BD4680BD0050002080B485B000AF786045
:104BD0000F4BD3F84031FB6072B60D4AFB6843F4CB
:104BE0008043C2F840317B685B68BB60084BD3F8F8
:104BF0004031FB6062B6FB6803F48043002BEBD0CE
:104C0000BB6818461437BD465DF8047B704700BF8B
:104C100000002E4080B586B000AF1F4BD3F8203285
:104C200023F07F433B613B691C4A934205D83A69B4
:104C300013469B0013445B003B613B1D0A2219464F
:104C40003869FEF7FBFF00237B6114E03A1D7B69A6
:104C500013441B78FB7397F90F30002B0FD097F993
:104C60000F3099B20E4A7B695B0013440A465A80A2
:104C70007B6901337B617B69092BE7D900E000BFC9
:104C80007B690133DBB25B00DAB2054B1A7000BFFF
:104C90001837BD4680BD00BF00441F407F96980076
:104CA000F40B002080B582B000AF786000F030F9DE
:104CB000034618460837BD4680BD80B582B000AFB8
:104CC000786000F0D5F8034618460837BD4680BD29
:104CD00080B582B000AF786000F0FEF80346184659
:104CE0000837BD4680BD80B582B000AF786000F067
:104CF00097FA00BF0837BD4680BD80B582B000AFCF
:104D0000786000F017F900BF0837BD4680BD80B558
:104D100082B000AF78600B46FB70FB78184600F05D
:104D200029F9034618460837BD4680BD80B584B0D2
:104D300000AFF860B9607A607968B86800F06AF925
:104D4000034618461037BD4680BD80B582B000AF1F
:104D5000786000F02DFA034618460837BD4680BD3E
:104D600080B400AF034B00221A7000BFBD465DF84F
:104D7000047B70471C0C002080B485B000AF7860C5
:104D80007B685B681B0CC3F30E03C3F14003FB603D
:104D90007B68DB69BB60FB6899B2074ABB6822F895
:104DA0001310064ABB68002122F8131000BF143705
:104DB000BD465DF8047B70470028002008280020CD
:104DC00080B400AF00BFBD465DF8047B70470000B3
:104DD00080B500AFE02200211C4803F093FF1C4B7C
:104DE00000221A701B4B00221A80602200211A48F0
:104DF00003F088FF06220021184803F083FF0622F3
:104E00000021174803F07EFF00230022102102201A
:104E1000FFF79EFD134B002240210320FFF760FDAA
:104E20000023002240210420FFF792FD00234022AE
:104E30000D490948FFF7C6FD07490320FFF7A2FE09
:104E40004B210A4800F0A6F800BF80BDE01E0020FC
:104E5000C0260020C2260020E026002000280020D6
:104E60000828002009350000402700204D3A0000A6
:104E700080B582B000AF144B1A88144B1B889A423D
:104E80001BD2114B1B885A1C91B20F4A11801A4633
:104E90000F4B9B5C7B600C4B1A880C4B1B889A4217
:104EA00009D3002340220A490A48FFF78BFD09492C
:104EB0000320FFF767FE7B6801E04FF0FF331846E1
:104EC0000837BD4680BD00BF08280020002800200C
:104ED00040270020E026002080B400AF094B1A884C
:104EE000094B1B889A4205D2064B1B881A46074B72
:104EF0009B5C01E04FF0FF331846BD465DF8047B34
:104F0000704700BF0828002000280020402700200C
:104F100080B400AF054B1B881A46054B1B88D31A7B
:104F20001846BD465DF8047B704700BF002800208E
:104F30000828002080B500AF0A4B1A880A4B1B884E
:104F40009A420DD2084B1A88064B1A800023402241
:104F500006490748FFF736FD05490320FFF712FE13
:104F600000BF80BD08280020002800204027002026
:104F7000E026002080B582B000AF0346FB71FB1D28
:104F80000121184600F046F8034618460837BD468A
:104F900080BD000080B483B000AF786039600D4AF6
:104FA0007B6813600C4B0022C3F884200A4A3B68DC
:104FB000013BC2F88030084A074BD3F8483143F030
:104FC0008073C2F8483100BF0C37BD465DF8047BE2
:104FD000704700BFB01E002000002E4080B400AF1C
:104FE000044B4FF04042C3F8842000BFBD465DF83B
:104FF000047B704700002E4080B400AF044B0022B9
:10500000C3F8842000BFBD465DF8047B704700BF35
:1050100000002E4080B58AB000AF78603960002370
:105020007B627B683B625B4B1B78DBB2002B40F002
:10503000A7800023A9E0584B1B785B01574A134413
:105040007B610023FB610023BB6132E07869FFF7DD
:10505000BBFDF860FB6803F08003002B07D1504BC9
:105060004FF480721A804F4B00221A7025E0FB69C2
:10507000002B04D14C4B1B68BB610123FB61494BE6
:105080001B78002B01D07B6A7FE0474B1A68BB6915
:10509000D31A782B04D9434B01221A707B6A74E02F
:1050A0003C4B1B78DBB2002B01D17B6A6DE000F03A
:1050B000A9F93B4B1B88002BC8D0374B1B781B0230
:1050C0001A46374B1B88D31A03F58073374A1344AB
:1050D0003B61334B1B881A463B689A423BD8304BA6
:1050E0001B881A46396A3869FEF70EFD2A4B1B7871
:1050F0001B021A462D4BD11800234FF48072786999
:10510000FFF760FC79690420FFF718FD224B1B783C
:105110000133DAB2204B1A701F4B1B78062B02D9D1
:105120001D4B00221A701E4B1B881A463B689B1AA7
:105130003B601B4B1B881A467B6A13447B62184BEF
:105140001B881A463B6A13443B62154B00221A80A7
:10515000FFF752FF14E03A68396A3869FEF7D4FC69
:105160000F4B1A883B689BB2D31A9AB20C4B1A8029
:105170007A6A3B6813447B6200233B60FFF72EFF93
:105180003B68002B7FF457AF7B6A18462837BD4633
:1051900080BD00BFA01E0020C0260020E01E002011
:1051A000C22600200E280020741E0020C01F0020F0
:1051B00080B582B000AF00237B60164B01221A70CD
:1051C00000233B601AE0144B1B781A463B689A4256
:1051D00010D03B685B01114A13441846FFF7F4FCFA
:1051E000034603F08003002B05D17B6803F5807331
:1051F0007B6000E000BF3B6801333B603B68062BEF
:10520000E1D9044B00221A707B6818460837BD4666
:1052100080BD00BFC11E0020C0260020E01E00206F
:1052200080B582B000AF1F4B1B78DBB2002B33D0B0
:105230001D4B1B88002B31D01C4B01221A701C4BBC
:105240001B785B011B4A13447B60194B1B781B02C4
:105250001A46194BD118144B1B88C3F580731A4694
:1052600000237868FFF7AEFB79680420FFF766FC3F
:105270000F4B1B780133DAB20D4B1A700C4B1B78B5
:10528000062B02D90A4B00221A70074B00221A8003
:10529000064B00221A7002E000BF00E000BF083792
:1052A000BD4680BDA01E0020C2260020C11E0020D9
:1052B000C0260020E01E0020C01F002080B582B064
:1052C00000AF204B1B78DBB2002B32D11E4B1B787A
:1052D000DBB2002B2FD01D4B1B88002B2DD01C4B7D
:1052E0001B785B011B4A13447B60194B1B781B0224
:1052F0001A46194BD118154B1B88C3F580731A46F3
:1053000000237868FFF75EFB79680420FFF716FC3E
:105310000F4B1B780133DAB20D4B1A700C4B1B7814
:10532000062B02D90A4B00221A70084B00221A8061
:1053300004E000BF02E000BF00E000BF0837BD4648
:1053400080BD00BFC11E0020A01E0020C22600207C
:10535000C0260020E01E0020C01F002080B584B0C1
:1053600000AF254B1B68002B3FD0EFF30583FB609C
:10537000FB68002B3BD1FCF7A3FB0346FB721E4BE3
:105380001B687B607B68002B04D1FB7A1846FCF716
:10539000AAFB2DE0194B1B78002B04D0FB7A184692
:1053A000FCF7A1FB24E0154B01221A707B685B69B6
:1053B000114A1360104B1B68002B04D00E4B1B6866
:1053C00000229A6102E00E4B00221A60FB7A184616
:1053D000FCF789FB7B6800225A777B689B687868BA
:1053E0009847064B00221A7002E000BF00E000BFA1
:1053F0001037BD4680BD00BF7C1800208C180020EF
:105400008018002080B500AF124B1B78002B1FD1F5
:10541000104B01221A70104B1B78002B07D00F483D
:10542000FFF740FC0346002B01D0012300E00023DE
:10543000002B01D0FFF794FC094B1B78002B01D007
:10544000FDF7F2F9034B00221A70FFF787FF00E027
:1054500000BF80BD0F2800201C0C00200C0C002079
:10546000B418002080B485B000AF786039603B6824
:105470001B685A0A0F49A1FB0212D2090E4901FB0F
:1054800002F29B1AFB603B681B685B0A094AA2FB9D
:105490000323DB09BB607B681A68BB681A447B681E
:1054A0001A603B68FA681A6000BF1437BD465DF8A1
:1054B000047B7047834B040000CA9A3B80B487B0DA
:1054C00000AF786087ED000A3B463B613B691B6893
:1054D000DB15DBB27B617B69002B03D07B6903F5B5
:1054E00060737B613B691B68FB607B685A1C7A6058
:1054F00000221A707B685A1C7A6000221A707B683E
:105500005A1C7A6000221A707B685A1C7A60FA680A
:105510005201D2B21A707B685A1C7A60FA68D210B3
:10552000D2B21A707B685A1C7A60FA68D212D2B270
:105530001A707B685A1C7A607A69120151B2FA6853
:10554000D21452B202F00F0252B20A4352B2D2B295
:105550001A707B685A1C7A607A691211D2B202F012
:105560007F02D2B21A70D7ED007AF5EEC07AF1EE72
:1055700010FA08D57B68013B7A68013A127862F02C
:105580007F02D2B21A70082318461C37BD465DF858
:10559000047B704780B485B000AF786039603B68A9
:1055A000FB607B6803337B607B685A1C7A601B78E6
:1055B0005B0903F00702FB681A607B685A1C7A607B
:1055C0001B78DB00FA6812681A43FB681A607B6874
:1055D0005A1C7A601B78DB02FA6812681A43FB686F
:1055E0001A60FB681A687B681B78DB0403F4F0031D
:1055F0001A43FB681A607B685A1C7A601B781B0987
:1056000003F00F03BB607B681B781B0103F4FE6291
:10561000BB681343BB60BB68002B08D0FB681A68EB
:10562000BB68A3F56073DB051A43FB681A607B68EF
:105630005A1C7A601B781B0603F00043FA68126854
:105640001A43FB681A60082318461437BD465DF8F4
:10565000047B704780B483B000AF78607B68002221
:105660001A607B6800225A607B6818460C37BD467A
:105670005DF8047B7047000080B584B000AFF8602F
:1056800087ED000B97ED000B02F00EFFB0EE407BB4
:10569000FCEEC77B17EE902AFB681A60FB681B685C
:1056A00007EE903AB8EE677B97ED006B36EE477BDE
:1056B0009FED096B27EE067BB0EE470B02F080FFF3
:1056C000B0EE407BFCEEC77B17EE902AFB685A6079
:1056D00000BF1037BD4680BD0000000065CDCD4144
:1056E00080B483B000AF7860044A7B681A607B683E
:1056F00018460C37BD465DF8047B7047EC06002069
:1057000080B582B000AF78607B681846FFF7E8FF8D
:10571000064A7B681A607B6804331846FFF79AFFD5
:105720007B6818460837BD4680BD00BFD406002000
:1057300080B485B000AF786039600023FB60FB68FF
:105740003A6813447A685268D2B21A70FB6801331F
:105750003A6813447A685268120AD2B21A70FB6827
:1057600002333A6813447A685268120CD2B21A7043
:10577000FB6803333A6813447A685268120ED2B257
:105780001A70FB680433FB60FB683A6813447A685C
:105790009268D2B21A70FB6801333A6813447A688F
:1057A0009268120AD2B21A70FB6802333A68134444
:1057B0007A689268120CD2B21A70FB6803333A68A6
:1057C00013447A689268120ED2B21A70FB680433DE
:1057D000FB60FB6818461437BD465DF8047B7047D4
:1057E00080B485B000AF786039600023FB60FB684F
:1057F0003A6813441B781A467B685A607B685A687B
:10580000FB68013339680B441B781B021A437B6821
:105810005A607B685A68FB68023339680B441B780E
:105820001B041A437B685A607B685A68FB68033321
:1058300039680B441B781B061A437B685A60FB6867
:105840000433FB60FB683A6813441B781A467B6894
:105850009A607B689A68FB68013339680B441B784F
:105860001B021A437B689A607B689A68FB68023364
:1058700039680B441B781B041A437B689A607B6869
:105880009A68FB68033339680B441B781B061A437C
:105890007B689A60FB680433FB60FB68184614372A
:1058A000BD465DF8047B704780B483B000AF78607C
:1058B000034B18460C37BD465DF8047B704700BFAC
:1058C000E803002080B483B000AF7860034B184633
:1058D0000C37BD465DF8047B704700BFF80300201D
:1058E00080B582B000AF78607B681846FFF7F8FE9D
:1058F0000B4A7B681A607B6800229A807B68094AA1
:105900009A607B68074ADA607B68064A1A617B689E
:1059100000225A617B6818460837BD4680BD00BF2B
:10592000BC0600201C04002080B588B000AF786061
:1059300039600023FB61FB693A6813447A689288F6
:10594000D2B21A70FB6901333A6813447A689288BC
:10595000120A92B2D2B21A70FB690233FB617B6801
:105960009B68184603F0E4FBB861FB693A6813448E
:10597000B969184602F014F8FB690433FB61FB694E
:105980003A68D0187B689B68BA691946FEF7BCF87C
:10599000FA69BB691344FB617B68DB68184603F056
:1059A000C7FB7861FB693A6813447969184601F0CE
:1059B000F7FFFB690433FB61FB693A68D0187B6829
:1059C000DB687A691946FEF79FF8FA697B69134428
:1059D000FB617B681B69184603F0AAFB3861FB6911
:1059E0003A6813443969184601F0DAFFFB69043359
:1059F000FB61FB693A68D0187B681B693A691946F4
:105A0000FEF782F8FA693B691344FB617B685B69C6
:105A1000FB60FB693A681344FA68D2B21A70FB69FA
:105A200001333A681344FA68120AD2B21A70FB6959
:105A300002333A681344FA68120CD2B21A70FB6946
:105A400003333A681344FA68120ED2B21A70FB6933
:105A50000433FB61FB6918462037BD4680BD80B525
:105A60008AB000AF786039600023BB61BB693A68D7
:105A700013441B789AB27B689A807B689B881AB221
:105A8000BB69013339680B441B781B021BB21343FB
:105A90001BB29AB27B689A80BB690233BB61BB6957
:105AA0003A681A4407F114031146184601F096FFAC
:105AB000BB690433BB61BB697B62BA697B691A4409
:105AC0007B6A9A420CD97B6A013B3A681344396875
:105AD0007A6A0A4412781A707B6A01337B62ECE7B7
:105AE000BA697B691344013B3A68134400221A7077
:105AF000BB69013B3A681A447B689A60BA697B6962
:105B00001344BB61BB693A681A4407F1100311469C
:105B1000184601F063FFBB690433BB61BB693B629C
:105B2000BA693B691A443B6A9A420CD93B6A013B09
:105B30003A68134439683A6A0A4412781A703B6A20
:105B400001333B62ECE7BA693B691344013B3A68B5
:105B5000134400221A70BB69013B3A681A447B68FF
:105B6000DA60BA693B691344BB61BB693A681A449D
:105B700007F10C031146184601F030FFBB690433EE
:105B8000BB61BB69FB61BA69FB681A44FB699A4255
:105B90000CD9FB69013B3A6813443968FA690A4435
:105BA00012781A70FB690133FB61ECE7BA69FB6894
:105BB0001344013B3A68134400221A70BB69013B4D
:105BC0003A681A447B681A61BA69FB681344BB617E
:105BD0000023BB60BB68BA6939680A441278134372
:105BE000BB60BA68BB69013339680B441B781B0280
:105BF0001343BB60BA68BB69023339680B441B7836
:105C00001B041343BB60BA68BB69033339680B4498
:105C10001B781B061343BB60BA687B685A61BB697B
:105C20000433BB61BB6918462837BD4680BD000000
:105C300080B483B000AF7860034B18460C37BD4684
:105C40005DF8047B704700BF2004002080B483B05F
:105C500000AF7860034B18460C37BD465DF8047BF7
:105C6000704700BF3C04002080B582B000AF786070
:105C70007B681846FFF734FD064A7B681A607B682C
:105C800000221A717B68044A9A607B6818460837BC
:105C9000BD4680BDA40600201C04002080B584B051
:105CA00000AF786039600023FB60FB683A681344FA
:105CB0007A6812791A70FB680133FB607B689B6815
:105CC000184603F035FAB860FB683A681344B968BF
:105CD000184601F065FEFB680433FB60FB683A6818
:105CE000D0187B689B68BA681946FDF70DFFFA6803
:105CF000BB681344FB60FB6818461037BD4680BD87
:105D000080B586B000AF7860396000233B613B69A5
:105D10003A6813441A787B681A713B6901333B6116
:105D20003B693A681A4407F10C031146184601F022
:105D300055FE3B6904333B613B697B613A69FB6813
:105D40001A447B699A420CD97B69013B3A68134437
:105D500039687A690A4412781A707B6901337B6169
:105D6000ECE73A69FB681344013B3A6813440022AC
:105D70001A703B69013B3A681A447B689A603A6939
:105D8000FB6813443B613B6918461837BD4680BD2C
:105D900080B483B000AF7860034B18460C37BD4623
:105DA0005DF8047B704700BF6004002080B483B0BE
:105DB00000AF7860034B18460C37BD465DF8047B96
:105DC000704700BF7404002080B582B000AF7860D7
:105DD0007B681846FFF784FC0C4A7B681A607B6876
:105DE00000225A607B680022DA607B6800221A6118
:105DF0007B6800229A617B680022DA617B6800225E
:105E00005A627B6818460837BD4680BD8C06002064
:105E100080B58AB000AF7860396000237B627B6A0E
:105E20003A6813447A685268D2B21A707B6A0133B6
:105E30003A6813447A685268120AD2B21A707B6ABE
:105E400002333A6813447A685268120CD2B21A705C
:105E50007B6A03333A6813447A685268120ED2B2EE
:105E60001A707B6A04337B6200233B627B685A684A
:105E70003B6A9A422BD97B68DA683B6A9B001344E1
:105E80001B683B617B6A3A6813443A69D2B21A7064
:105E90007B6A01333A6813443A69120AD2B21A7023
:105EA0007B6A02333A6813443A69120CD2B21A7010
:105EB0007B6A03333A6813443A69120ED2B21A70FD
:105EC0007B6A04337B623B6A01333B62CEE77B6AC9
:105ED0003A6813447A681269D2B21A707B6A013345
:105EE0003A6813447A681269120AD2B21A707B6A4D
:105EF00002333A6813447A681269120CD2B21A70EB
:105F00007B6A03333A6813447A681269120ED2B27C
:105F10001A707B6A04337B620023FB617B681A6919
:105F2000FB699A422BD97B689A69FB699B001344F1
:105F30001B68FB607B6A3A681344FA68D2B21A7035
:105F40007B6A01333A681344FA68120AD2B21A70B3
:105F50007B6A02333A681344FA68120CD2B21A70A0
:105F60007B6A03333A681344FA68120ED2B21A708D
:105F70007B6A04337B62FB690133FB61CEE77B6A9A
:105F80003A6813447A68D269D2B21A707B6A0133D4
:105F90003A6813447A68D269120AD2B21A707B6ADC
:105FA00002333A6813447A68D269120CD2B21A707A
:105FB0007B6A03333A6813447A68D269120ED2B20C
:105FC0001A707B6A04337B620023BB617B68DA69E9
:105FD000BB699A4228D97B685A6ABB699B00134403
:105FE0001B68184603F0A4F878617B6A3A6813448A
:105FF0007969184601F0D4FC7B6A04337B627B6AC2
:106000003A68D0187B685A6ABB699B0013441B68C6
:106010007A691946FDF778FD7A6A7B6913447B62D9
:10602000BB690133BB61D1E77B6A18462837BD469F
:1060300080BD80B58EB000AF7860396000237B638F
:106040007B6B3A6813441B783B627B6B01333A6885
:1060500013441B781B023A6A13433B627B6B023387
:106060003A6813441B781B043A6A13433B627B6B08
:1060700003333A6813441B781B063A6A13433B62A6
:106080007B6B04337B637B685A683B6A9A420AD213
:106090007B68DA683B6A9B001946104602F084FE72
:1060A00002467B68DA607B683A6A5A6000233B6389
:1060B0007B685A683B6B9A4236D900237B617B69C7
:1060C0007A6B39680A44127813437B617A697B6B77
:1060D000013339680B441B781B0213437B617A69D7
:1060E0007B6B023339680B441B781B0413437B61C1
:1060F0007A697B6B033339680B441B781B061343A7
:106100007B617A697B689A607B6B04337B637B6815
:10611000DA683B6B9B0013447A68083212681A6095
:106120003B6B01333B63C3E77B6B3A6813441B78DB
:10613000FB617B6B01333A6813441B781B02FA69DD
:106140001343FB617B6B02333A6813441B781B04D7
:10615000FA691343FB617B6B03333A6813441B7882
:106160001B06FA691343FB617B6B04337B637B681B
:106170001A69FB699A420AD27B689A69FB699B009B
:106180001946104602F010FE02467B689A617B6851
:10619000FA691A610023FB627B681A69FB6A9A42FA
:1061A00036D900233B613B697A6B39680A4412781F
:1061B00013433B613A697B6B013339680B441B78AD
:1061C0001B0213433B613A697B6B023339680B4412
:1061D0001B781B0413433B613A697B6B03333968BB
:1061E0000B441B781B0613433B613A697B685A6179
:1061F0007B6B04337B637B689A69FB6A9B00134467
:106200007A68143212681A60FB6A0133FB62C3E7D2
:106210007B6B3A6813441B78BB617B6B01333A6834
:1062200013441B781B02BA691343BB617B6B0233B7
:106230003A6813441B781B04BA691343BB617B6B38
:1062400003333A6813441B781B06BA691343BB61D6
:106250007B6B04337B637B68DA69BB699A420AD241
:106260007B685A6ABB699B001946104602F09CFD88
:1062700002467B685A627B68BA69DA610023BB62B6
:106280007B68DA69BB6A9A423FD97B6B3A681A44E9
:1062900007F10C031146184601F0A0FB7B6B043399
:1062A0007B637B6B7B627A6BFB681A447B6A9A42E6
:1062B0000CD97B6A013B3A68134439687A6A0A440C
:1062C00012781A707B6A01337B62ECE77A6BFB68A9
:1062D0001344013B3A68134400221A707B6B013B64
:1062E0003A681A447B681A627A6BFB6813447B63D2
:1062F0007B685A6ABB6A9B0013447A682032126832
:106300001A60BB6A0133BB62BAE77B6B1846383749
:10631000BD4680BD80B483B000AF7860034B1846A3
:106320000C37BD465DF8047B704700BFE0050020D8
:1063300080B483B000AF7860034B18460C37BD467D
:106340005DF8047B704700BF9804002080B485B0DE
:1063500000AFF860B9607A603B60FB68BA681A60A9
:10636000FB687A685A60FB683A681A61FB681846ED
:106370001437BD465DF8047B704780B582B000AF2E
:10638000786039607B68DB681B681B687A68D06856
:106390007A6891683A689847034618460837BD46B8
:1063A00080BD80B483B000AF78607B681B691846FD
:1063B0000C37BD465DF8047B704780B483B000AFF6
:1063C0007860396000BF0C37BD465DF8047B7047CC
:1063D00080B483B000AF78607B68064A1A607B683F
:1063E0004FF4E1325A607B6818460C37BD465DF8C1
:1063F000047B70470C0C002080B582B000AF786041
:106400007B681A687B685B6819461046FFF7D5FF02
:1064100000BF0837BD4680BD80B582B000AF786050
:106420007B681B681B6814331B687A681268104607
:106430009847034618460837BD4680BD80B586B0EC
:1064400000AFF860B9607A6000237B617A697B688D
:106450009A420FDAFB681B681B681B68FA681068B1
:106460007A69B9680A441278114698477B69013302
:106470007B61EBE700BF1837BD4680BD80B483B0B9
:1064800000AF7860044B1B6800BF18460C37BD4650
:106490005DF8047B704700BF741E002080B582B099
:1064A00000AF78607B681846FFF71AF9094A7B68E5
:1064B0001A607B6800225A607B6808331846FFF731
:1064C000C9F87B68044A1A617B6818460837BD46DC
:1064D00080BD00BF600600201C04002080B584B091
:1064E00000AF786039600023FB60FB683A681344B2
:1064F0007A685268D2B21A70FB6801333A68134462
:106500007A685268120AD2B21A70FB6802333A688B
:1065100013447A685268120CD2B21A70FB680333C3
:106520003A6813447A685268120ED2B21A70FB6845
:106530000433FB60FB683A6813447A689268D2B20D
:106540001A70FB6801333A6813447A689268120A39
:10655000D2B21A70FB6802333A6813447A689268C0
:10656000120CD2B21A70FB6803333A6813447A688B
:106570009268120ED2B21A70FB680433FB60FB689B
:106580003A6813447A68D268D2B21A70FB68013351
:106590003A6813447A68D268120AD2B21A70FB6859
:1065A00002333A6813447A68D268120CD2B21A7075
:1065B000FB6803333A6813447A68D268120ED2B289
:1065C0001A70FB680433FB607B681B69184602F095
:1065D000AFFDB860FB683A681344B968184601F02B
:1065E000DFF9FB680433FB60FB683A68D0187B680E
:1065F0001B69BA681946FDF787FAFA68BB68134445
:10660000FB60FB6818461037BD4680BD80B586B07C
:1066100000AF7860396000233B613B693A681344FE
:106620001B781A467B685A607B685A683B6901335D
:1066300039680B441B781B021A437B685A607B68DD
:106640005A683B69023339680B441B781B041A43B0
:106650007B685A607B685A683B69033339680B442E
:106660001B781B061A437B685A603B6904333B6105
:106670003B693A6813441B781A467B689A607B68CA
:106680009A683B69013339680B441B781B021A4333
:106690007B689A607B689A683B69023339680B446F
:1066A0001B781B041A437B689A607B689A683B6975
:1066B000033339680B441B781B061A437B689A60C6
:1066C0003B6904333B613B693A6813441B781A46C3
:1066D0007B68DA607B68DA683B69013339680B44B0
:1066E0001B781B021A437B68DA607B68DA683B69B7
:1066F000023339680B441B781B041A437B68DA6049
:106700007B68DA683B69033339680B441B781B06E6
:106710001A437B68DA603B6904333B613B693A6842
:106720001A4407F10C031146184601F057F93B696A
:1067300004333B613B697B613A69FB681A447B69BE
:106740009A420CD97B69013B3A68134439687A69EB
:106750000A4412781A707B6901337B61ECE73A696D
:10676000FB681344013B3A68134400221A703B69EA
:10677000013B3A681A447B681A613A69FB68134422
:106780003B613B6918461837BD4680BD80B483B075
:1067900000AF7860034B18460C37BD465DF8047BAC
:1067A000704700BFBC04002080B483B000AF7860A5
:1067B000034B18460C37BD465DF8047B704700BF9D
:1067C000CC04002080B582B000AF78607B681846AA
:1067D000FEF786FF0B4A7B681A607B684FF0000269
:1067E0005A607B684FF000029A607B684FF00002AD
:1067F000DA607B684FF000021A617B681846083740
:10680000BD4680BD4806002080B584B000AF7860EA
:1068100039600023FB60FB683A681A447B68D3ED5B
:10682000017AB0EE670A1046FEF748FE0246FB68A2
:106830001344FB60FB683A681A447B68D3ED027A24
:10684000B0EE670A1046FEF739FE0246FB681344B5
:10685000FB60FB683A681A447B68D3ED037AB0EEBC
:10686000670A1046FEF72AFE0246FB681344FB60E7
:10687000FB683A681A447B68D3ED047AB0EE670A85
:106880001046FEF71BFE0246FB681344FB60FB68E4
:1068900018461037BD4680BD80B584B000AF786023
:1068A00039600023FB60FB683A681A447B68043354
:1068B00019461046FEF76EFE0246FB681344FB6065
